:020000040000FA
:10000000781600209D010000A5010000A701000056
:1000100000000000000000000000000000000000E0
:10002000000000000000000000000000A901000026
:100030000000000000000000AB010000AD01000066
:10004000AF010000AF010000AF010000AF010000F0
:10005000AF010000AF010000AF010000AF010000E0
:10006000AF010000AF0100009D120000AF010000D1
:10007000AF010000AF010000AF010000AF010000C0
:10008000AF010000AF010000AF010000AF010000B0
:10009000BD100000AF010000AF010000AF01000083
:1000A000AF010000AF010000AF010000AF01000090
:1000B000AF010000AF010000AF010000AF01000080
:1000C00000F002F800F03EF80CA030C80838241800
:1000D0002D18A246671EAB4654465D46AC4201D180
:1000E00000F030F87E460F3E0FCCB6460126334274
:1000F00000D0FB1AA246AB46334318474815000010
:1001000068150000103A02D378C878C1FAD85207AF
:1001100001D330C830C101D504680C6070470000BD
:100120000023002400250026103A01D378C1FBD813
:10013000520700D330C100D50B6070471FB51FBDFB
:1001400010B510BD00F068F91146FFF7F7FF01F098
:100150003DFA00F080F903B4FFF7F2FF03BC00F0B2
:1001600087F9000070B505460C46164602E00FCC34
:100170000FC5103E102EFAD2082E02D303CC03C5B1
:10018000083E042E07D301CC01C5361F03E02178B9
:100190002970641C6D1C761EF9D270BD074880471B
:1001A00007480047FEE7FEE7FEE7FEE7FEE7FEE75B
:1001B00004480549054A064B70470000C911000074
:1001C000C10000007806002078160020780E00207C
:1001D000780E0020F8B5042A2CD3830712D00B78B0
:1001E000491C0370401C521E83070BD00B78491C1E
:1001F0000370401C521E830704D00B78491C037007
:10020000401C521E8B079B0F05D0C91ADF0020230C
:10021000DE1B08C90AE0FFF7A5FFF8BD1D4608C9A7
:10022000FD401C46B4402C4310C0121F042AF5D2D6
:10023000F308C91A521EF0D40B78491C0370401CF5
:10024000521EEAD40B78491C0370401C012AE4D4E6
:1002500009780170F8BD01E004C0091F0429FBD230
:100260008B0701D50280801CC90700D0027070473F
:1002700000290BD0C30702D00270401C491E02297E
:1002800004D3830702D50280801C891EE3E7002285
:10029000EEE70022DFE70378C278194643781206BA
:1002A0001B0219438378C0781B04194311430902C8
:1002B000090A000608437047002203098B422CD329
:1002C000030A8B4211D300239C464EE003460B43A6
:1002D0003CD4002243088B4231D303098B421CD308
:1002E000030A8B4201D394463FE0C3098B4201D3FA
:1002F000CB01C01A524183098B4201D38B01C01A32
:10030000524143098B4201D34B01C01A52410309A8
:100310008B4201D30B01C01A5241C3088B4201D357
:10032000CB00C01A524183088B4201D38B00C01A04
:10033000524143088B4201D34B00C01A5241411A2B
:1003400000D201465241104670475DE0CA0F00D00E
:100350004942031000D34042534000229C46030907
:100360008B422DD3030A8B4212D3FC22890112BA8D
:10037000030A8B420CD3890192118B4208D3890165
:1003800092118B4204D389013AD0921100E089097D
:10039000C3098B4201D3CB01C01A524183098B425E
:1003A00001D38B01C01A524143098B4201D34B0147
:1003B000C01A524103098B4201D30B01C01A5241AA
:1003C000C3088B4201D3CB00C01A524183088B4231
:1003D00001D38B00C01A5241D9D243088B4201D3BA
:1003E0004B00C01A5241411A00D2014663465241A5
:1003F0005B10104601D34042002B00D549427047A4
:1004000063465B1000D3404201B50020C046C046A1
:1004100002BD704770477047754600F025F8AE463C
:10042000050069465346C008C000854618B020B58F
:10043000FFF7BEFE60BC00274908B6460026C0C5CF
:10044000C0C5C0C5C0C5C0C5C0C5C0C5C0C5403D8C
:1004500049008D46704710B50446C046C046204648
:10046000FFF779FE10BD0000004870471406002019
:1004700001491820ABBEFEE72600020070470000CD
:1004800040BA81B2094A08091140104009010843E5
:10049000074A81081040114080000143054A48087E
:1004A0001140104049000843704700000F0F000042
:1004B0003333000055550000F0B50E4B9C68986032
:1004C000002019250C4CAD010FE00E5C1F681E606A
:1004D000A6695F683F07FF0F05D0A769F71B3F02BA
:1004E0003F0AAF42F5D3401C80B29042EDD318686A
:1004F00080B2F0BD0080014000E000E015491448E2
:100500000860154801690F221204914301611349E3
:100510000968CB430A0C9BB29A4200D030214906AD
:100520004269490ED209D2010A434261C168C90831
:10053000C900C160C168072212029143C160C1684D
:1005400012029143C160C168D2009143C1607047FB
:1005500000127A00040000200002004040FBFF1F50
:1005600010B572B6142000F023FE0F4881694908C7
:10057000490081610D48816A4908490081620A2069
:1005800000F016FE0A484168490849004160416888
:100590008215914341600168490849000160016882
:1005A00002229143016010BD00340140000200406E
:1005B000001C014070B500240C2801D2022070BD3F
:1005C00041020D46074800F045F9002290002858E6
:1005D000401C01D0012403E0521C92B2802AF5D3C2
:1005E000204670BD00100040F8B5044603200025E9
:1005F000C00216460F46844201D20220F8BD1346BF
:100600000A462146084800F08FF9002008E08100E2
:10061000625879588A4201D0012503E0401C80B21B
:10062000B042F4D32846F8BD0010004000B589B0B0
:10063000002009490190079101210691402108906D
:10064000029100902021049003910590694603488F
:1006500000F098F809B000BD2110000000800140B2
:1006600010B588B01C216846FFF713FE0020FF215B
:100670000131124C01900290039000910490694660
:10068000204600F057FAE1688220E06004206061B3
:10069000216901432161142000F08AFD08480168A6
:1006A0008022090A0902114301600121054A080557
:1006B0001060A0690843A06108B010BD003401407B
:1006C00014E400E000E100E0F0B52C4C7D21E18075
:1006D000A7780025E678218822893B0000F068FF92
:1006E00008050F182F2F1F272D2F682827D1310914
:1006F0000901E1700121A170002121812AE0022A73
:1007000028D31F494978090209182180022104E0F1
:10071000682814D10021E1700521A1701AE0C91CDC
:100720008A4201D1062306E08A4208D812E0491D18
:100730008A42F9D10723A370F6E7162801D0AA252B
:100740000EE00821A1700021E1800F212171042118
:100750000E43E67022890A4988542089401C208172
:1007600000F08CFE002801D1AA2D05D10020A07038
:10077000E07880088000E070A078F0BD08040020D8
:100780000800002070B5314A904200D0FEE70123F6
:100790004A685B02002A02D09A4200D0FEE7FF249A
:1007A0000A6A0134002A02D0A24200D0FEE78A6918
:1007B000012A06D0002A04D0022A02D0032A00D03F
:1007C000FEE78A68002A06D0402A04D0802A02D098
:1007D000C02A00D0FEE7CA68002A02D0202A00D032
:1007E000FEE71B4D0122EE6A1643EE620D6A426877
:1007F000A2432A4342608C684268C025AA43224330
:100800004260CC6842682025AA43224342608A693C
:100810004468A408A400144344600A69C468C26020
:10082000CA69C469C2610A68846882604C684268A7
:100830009A43224342604A690421012A426803D054
:100840008A434260012070BD0A43FAE700800140FC
:1008500000020040F8B504462D480D46844200D001
:10086000FEE7002D02D02B48854200D9FEE720206C
:1008700000F014FBA80707D1206A07277F04012195
:100880003840C904884201D10020F8BD0126B605D0
:10089000304600F00BFB6069032109028843606168
:1008A000204600F0B9F8206A31113840884208D05B
:1008B000EFF3108072B61849A1611849A16180F365
:1008C000108801202062164929600146154A02E07D
:1008D000491C91420BD8236ADB05DB0F07D1236A41
:1008E0009B05DB0F03D1236A5B05DB0F01D00025DD
:1008F00005E0236ADB07DB0FEAD020620125002038
:10090000C043A061304600F0C1FA2846F8BD00009F
:1009100000100040FFFF030096969696EAEAEAEA86
:10092000CDAB3412FFFF0000F8B51D4616460F464A
:10093000002408E0A0003258C119054800F00AF868
:10094000002803D0641CAC42F4D30120F8BD0000A1
:1009500000100040F8B504462A4816460D46844269
:1009600000D0FEE7002D02D02748854200D9FEE7DF
:10097000202000F093FAA80707D1206A07277F04F8
:1009800001213840C904884201D10020F8BD01206E
:10099000800500F08BFA204600F047F8206A03211A
:1009A00038404904884208D0EFF3108072B61749E6
:1009B000A1611749A16180F31088012015492E60BB
:1009C00002E0401C88420BD8226AD205D20F07D120
:1009D000226A9205D20F03D1226A5205D20F01D0AA
:1009E000002506E0226A9207D20FEAD00220206298
:1009F00001250020C043A0610120800500F046FAD7
:100A00002846F8BD00100040FFFF0300A5A5A5A5DE
:100A1000F1F1F1F1FFFF00004169022291434161D0
:100A20004169012211434161704741694908490008
:100A300041614169022211434161704770B53A4AF0
:100A4000002390420CD0384A4032904208D0364AB7
:100A50008032904204D0344AC032904200D0FEE747
:100A60000A68002A02D0314CA24200D9FEE74A6847
:100A7000032A06D0002A04D0012A02D0022A00D07C
:100A8000FEE78A68012A02D0002A00D0FEE7CA6881
:100A9000002A02D0012A00D0FEE7254C8022A56A58
:100AA0001543A56239E001249C40224034D08C6873
:100AB000002C846809D095B22C438460CC68002C4B
:100AC000446805D095B22C4304E095B2AC43F4E7FA
:100AD00095B2AC4344604C68032C03D1846A95B250
:100AE0002C4384624C68022C06D10C69012C0AD17B
:100AF000046A95B22C4304624C68002C03D104684C
:100B000095B22C4304604D68C46852435600961950
:100B1000B4436A431443C4605B1C0A681446DC4057
:100B2000C1D1012070BD0000000C0040FFFF00009B
:100B300000020040F8B505464E4801260C468542A5
:100B400000D0FEE7206800280BD0C11FF93908D07B
:100B5000C11FFF39FA3904D003210902884200D0AD
:100B6000FEE7012260689203002802D0904200D084
:100B7000FEE70121A0680903002818D08B109842D5
:100B800015D04B10984212D003239B0298420ED0EE
:100B900088420CD005239B02984208D00323DB0235
:100BA000984204D007239B02984200D0FEE7E068F9
:100BB000002806D0012804D0032802D0022800D043
:100BC000FEE7A069002804D0202802D0402800D0E9
:100BD000FEE72069002802D0042800D0FEE7606903
:100BE000002802D0802800D0FEE7234B01209F6A16
:100BF00007439F6220484030036B0B4303636168E7
:100C00002868904308432860A16828680722920258
:100C1000904308432860E0682968890889000143F7
:100C20002960216928680422904308432860E0680D
:100C3000002809D0602701280AD002280FD00328F5
:100C400009D000263046F8BD206800F03FF9F9E7EA
:100C5000206800F03BF9A1692868B84307E06169A2
:100C6000286880229043084328602868510408437C
:100C70002860E7E700340140000200400F49CA68DD
:100C80000721090205230A401B02D11A9A4210D0FB
:100C900007DC002A04D0012189028A4200D14008E1
:100CA0007047FF39491E06D0FF390129F8D10009E4
:100CB000704780087047C00870470000000200407D
:100CC0000F49C96807221204052311401B04CA1AE0
:100CD000994210D007DC002904D0012292049142ED
:100CE00000D14008704701210904521A05D08A42F8
:100CF000F8D10009704780087047C00870470000AD
:100D0000000200400F49C9680722D20405231140A0
:100D1000DB04CA1A994210D007DC002904D0012252
:100D20005205914200D1400870470121C904521A6E
:100D300005D08A42F8D10009704780087047C00882
:100D4000704700000002004010B5174CA169022254
:100D5000114002D0022904D102E000F047F800E07F
:100D60001248A169702211400A07120F17D1091108
:100D70000B0000F01DFC08140507090B0D0F1314E0
:100D800040080CE080080AE0C00808E00C2102E0FE
:100D9000000904E01821FFF78FFA00E04009A1697B
:100DA0004902490E484310BD0002004000127A007B
:100DB0000A48426A032000040240094808D0012181
:100DC0000904521A05D0521A05D08A4200D10011E6
:100DD00070470448704704487047000040020040D4
:100DE00000093D0040420F0020A1070008480269A9
:100DF0000F2000040240074806D001210904521ABE
:100E000003D08A4200D1044870470448704700006C
:100E10000002004000127A0000366E010024F40047
:100E200010B51049C9684907490F0B0000F0C0FB15
:100E30000805080A070D10161307FFF7D7FF10BDA6
:100E4000094810BDFFF780FF10BDFFF7B1FF10BDCF
:100E50000120C00310BD00F009F810BD7D20000284
:100E600010BD00000002004000127A000448C06873
:100E70000821084201D10348704703487047000029
:100E800000020040006CDC020087930302490A6BF9
:100E900082430A6370470000400200400249CA6A68
:100EA0000243CA62704700000002004002490A6B18
:100EB00002430A63704700004002004002490A6B87
:100EC00002430A63704700000002004003490A6BB6
:100ED00003231B029A4302430A6370474002004007
:100EE000F8B5714B0D460446984209D06F488442CC
:100EF00006D06F48844203D06E48844200D0FEE79B
:100F00002868002806D0012804D0032802D004282D
:100F100000D0FEE7A968C02906D0002904D04029E6
:100F200002D0802900D0FEE7E1266968F602B142CE
:100F300000D9FEE72969002904D0102902D0202910
:100F400000D0FEE7E968002903D0CE1FF93E00D0AB
:100F5000FEE76969002906D0022904D0012902D0E0
:100F6000032900D0FEE7A969002902D0012900D099
:100F7000FEE74D49504E8C4202D04C498C4228D15C
:100F800049498C4203D1F16A8908890006E0474B40
:100F90009C4205D1F16A0C23994380000143F16220
:100FA0002868002806D001280BD003281AD004286E
:100FB0000AD11AE0FFF734FFFFF760FEFFF780FE6B
:100FC00001E0FFF713FF024610466968FFF774F966
:100FD000471E354884420BD18015FFF76FFFF06A3A
:100FE000A1150DE0FFF71CFFEDE7FFF7E1FEEAE7D3
:100FF0002E48844207D14015FFF760FFF06A611563
:101000000843F06220E02A4884420DD18014FFF7A3
:1010100055FFFFF705FFFFF731FEFFF773FE696825
:10102000FFF74AF9471E0FE0224884420CD14014D2
:10103000FFF744FFFFF7F4FEFFF720FEFFF762FE25
:101040006968FFF739F9471E287DC00703D020687B
:10105000012108432060287D800703D520680221F4
:1010600008432060A869012804D1206801214904AF
:1010700008432060A069000C00043843A061E968BF
:101080002068FF220132904308432060A96820684D
:10109000C022904308432060296920683022904391
:1010A000084320600120F8BD001C014000200140E1
:1010B00000A0014000A401404002004030B520499A
:1010C000042048611F490888401C08801E481F49A9
:1010D000C2888C15002A04D0521E1204120CC28041
:1010E0001FD00279002A1BD0521E1206120E027166
:1010F00016D1C27813070122002B1FDA144B1D787A
:101100004D614D68A5434D604C6814434C600281AD
:1011100059789A780902C91D511801807D21C18032
:1011200030BD4A68520852004A604A6822434A6009
:1011300000218170C1700171018130BD027130BD2B
:10114000003401400200002008040020001C01407F
:10115000080000201048416A052212021143416232
:101160000F4A0E49D1600F48106190600C4A40321E
:10117000D160106190600A4A8032D1601061906045
:1011800007480949C030C160084901618160FF21F9
:1011900081314160704700000002004055555555AF
:1011A000000C0040FFFF000055957E557FF80000C1
:1011B000002805DBC106C90E0120884001490860EE
:1011C0007047000080E100E010B5214A2148116815
:1011D0000B0C0B4202D14906490E416151680A0CC1
:1011E0004A40D2431206120E04D14906194A490E4A
:1011F000403291620021816105225206C260826AFA
:1012000080231A438262144AD3680F24A404234320
:10121000D3604162416A05221202114341620F49C3
:10122000491EFDD1AA218163C1680122D206114362
:10123000C1600B4801680122114301604168FE2230
:1012400011404160032001218907486010BD000062
:1012500040FBFF1F00020040C00C0040CE07000012
:1012600000A8014010B50A4801890288914201D3C3
:1012700002210AE0074A084B525C5C69640A640276
:1012800014435C61491C01817D21C18010BD0000B7
:101290000804002008000020001C014070B5124C1A
:1012A0006068C00506D5A068C00503D52069C0B236
:1012B000FFF70AFA60680125C007002805D0A0687A
:1012C000C00702D0FFF7CEFFA5606068C00503D459
:1012D000A068C00500D520696068C00703D1A06878
:1012E000C00700D0A56070BD001C0140F0B5604E85
:1012F000FFB0F078FB2184B008405E4CF07060785D
:10130000A1780002001D081885B22A462146002057
:10131000FFF7D2F8615D62195278090280B289182C
:1013200081427DD127796846077061794170A01D9F
:101330000091FEF7B0FF00BA050A607A2D0205435E
:101340000024152F74D14B4F012200980A37520206
:10135000082825D006DC01280CD0022815D0042846
:1013600066D117E0FD282ED04349FE285CD0FF2827
:101370005ED15BE0002528460C3080B2FFF71AF9F9
:101380006D1CADB2F02DF6D352E0E801000CFFF772
:1013900011F94DE0144629463846FEF71BFF47E099
:1013A000334839460C30FEF715FF314980220C31A5
:1013B0002846FFF719F900283AD02E484022017933
:1013C0001143017134E00121490202A8FEF761FFD7
:1013D00006243846FEF75FFF264900BA000A497B1B
:1013E0000002084300900020074613E0FFF748F88A
:1013F00080B201220190E919520202A8FEF7EAFE2A
:101400000122520202A90198FFF756F8FF37FF3771
:1014100080B2023700998F42E8D3020A154900E0F2
:1014200022E08A73C87303E0002000E055200870B2
:10143000104D80212879A41D08432871200A687066
:10144000E1B20002001D0C18A970224629460020B6
:10145000FFF732F8010A29552919487016208870BB
:10146000F07808210843F0707FB004B0F0BD0000B0
:10147000080400200800002000000020064B00B5F2
:101480000022184600F00AF8012803D1AA221846C3
:1014900000F012F8104600BD001C014081684903AD
:1014A000C90F07D181688903C90F03D18068C003C0
:1014B000C00F00D0012070470121890481604910CC
:1014C000816049108160704770B58CB0142107A805
:1014D000FEF7DFFE1C216846FEF7DBFE00240C2031
:1014E000022509940A9407A90B9421C118480839C8
:1014F000FFF7A4FA0126174968020094086016490C
:101500000A68FF231B049A4343031A430A601149E4
:1015100080390860E120400201900394049405940E
:10152000069440200D4C029069462046FFF7D8FCF7
:101530006068B04360606068A1150843606020681F
:10154000304320602068284320600CB070BD00004C
:10155000000C004080E100E008E400E0001C0140D5
:1015600010B586B0FEF7CAFF0E48C268C0218A4394
:101570000A43C2600C48016901242143016114211E
:101580006846FEF786FE0948610242690A434261E5
:10159000009100210291039101946946FFF74EFAF0
:1015A00006B010BD0002004000E000E0400C00402A
:1015B00030B47446641E2578641CAB4200D21D46CC
:1015C000635D5B00E31830BC18470000FFF7C2FD05
:1015D000FFF7C6FF174C0020607020706080FFF797
:1015E00025F8FFF771FFFFF73BF862B6124D134E77
:1015F00003247714E402E878400701D5FFF776FE6C
:10160000F1680F48814209D10A4801780029F2D1D6
:101610004188FA29EFD340780028ECD12068000CEB
:10162000B842E8D1FEF79CFF6068216881F3088822
:101630008047E0E7000000200804002080100140FF
:10164000ACAC5D5D641600000000002008000000E6
:10165000040100006C160000080000207016000055
:0C1660002001000000000000000000005D
:04000005000000C136
:00000001FF
